{
  "_format": "hh-sol-artifact-1",
  "contractName": "DIDRegistry",
  "sourceName": "src/contracts/DIDRegistry.sol",
  "abi": [
    {
      "anonymous": false,
      "inputs": [
        {
          "indexed": false,
          "internalType": "string",
          "name": "did",
          "type": "string"
        },
        {
          "indexed": false,
          "internalType": "address",
          "name": "owner",
          "type": "address"
        }
      ],
      "name": "DIDCreated",
      "type": "event"
    },
    {
      "anonymous": false,
      "inputs": [
        {
          "indexed": false,
          "internalType": "string",
          "name": "did",
          "type": "string"
        }
      ],
      "name": "DIDDeactivated",
      "type": "event"
    },
    {
      "anonymous": false,
      "inputs": [
        {
          "indexed": false,
          "internalType": "string",
          "name": "did",
          "type": "string"
        },
        {
          "indexed": false,
          "internalType": "string",
          "name": "attribute",
          "type": "string"
        },
        {
          "indexed": false,
          "internalType": "string",
          "name": "value",
          "type": "string"
        }
      ],
      "name": "DIDUpdated",
      "type": "event"
    },
    {
      "inputs": [
        {
          "internalType": "string",
          "name": "did",
          "type": "string"
        }
      ],
      "name": "createDID",
      "outputs": [],
      "stateMutability": "nonpayable",
      "type": "function"
    },
    {
      "inputs": [
        {
          "internalType": "string",
          "name": "did",
          "type": "string"
        }
      ],
      "name": "deactivateDID",
      "outputs": [],
      "stateMutability": "nonpayable",
      "type": "function"
    },
    {
      "inputs": [
        {
          "internalType": "string",
          "name": "did",
          "type": "string"
        },
        {
          "internalType": "string",
          "name": "key",
          "type": "string"
        }
      ],
      "name": "getAttribute",
      "outputs": [
        {
          "internalType": "string",
          "name": "",
          "type": "string"
        }
      ],
      "stateMutability": "view",
      "type": "function"
    },
    {
      "inputs": [
        {
          "internalType": "string",
          "name": "did",
          "type": "string"
        }
      ],
      "name": "getDIDOwner",
      "outputs": [
        {
          "internalType": "address",
          "name": "",
          "type": "address"
        }
      ],
      "stateMutability": "view",
      "type": "function"
    },
    {
      "inputs": [
        {
          "internalType": "address",
          "name": "owner",
          "type": "address"
        }
      ],
      "name": "getOwnerDIDs",
      "outputs": [
        {
          "internalType": "string[]",
          "name": "",
          "type": "string[]"
        }
      ],
      "stateMutability": "view",
      "type": "function"
    },
    {
      "inputs": [
        {
          "internalType": "string",
          "name": "did",
          "type": "string"
        }
      ],
      "name": "isDIDActive",
      "outputs": [
        {
          "internalType": "bool",
          "name": "",
          "type": "bool"
        }
      ],
      "stateMutability": "view",
      "type": "function"
    },
    {
      "inputs": [
        {
          "internalType": "string",
          "name": "did",
          "type": "string"
        },
        {
          "internalType": "string",
          "name": "key",
          "type": "string"
        },
        {
          "internalType": "string",
          "name": "value",
          "type": "string"
        }
      ],
      "name": "setAttribute",
      "outputs": [],
      "stateMutability": "nonpayable",
      "type": "function"
    }
  ],
  "bytecode": "0x608060405234801561001057600080fd5b50610cd6806100206000396000f3fe608060405234801561001057600080fd5b506004361061007d5760003560e01c80633b253b231161005b5780633b253b23146100d25780635268923f146100e55780635b11255914610105578063bf2d0daf1461013057600080fd5b806320c9d73a146100825780633457d3e2146100aa57806336958f89146100bf575b600080fd5b6100956100903660046108b0565b610150565b60405190151581526020015b60405180910390f35b6100bd6100b83660046108b0565b61017d565b005b6100bd6100cd3660046108ed565b6102bb565b6100bd6100e03660046108b0565b610448565b6100f86100f3366004610975565b6105b8565b6040516100a191906109f5565b6101186101133660046108b0565b6106a7565b6040516001600160a01b0390911681526020016100a1565b61014361013e366004610a57565b6106d7565b6040516100a19190610abb565b600080826040516101619190610ace565b9081526040519081900360200190206003015460ff1692915050565b60006001600160a01b03166000826040516101989190610ace565b908152604051908190036020019020546001600160a01b0316146101f85760405162461bcd60e51b815260206004820152601260248201527144494420616c72656164792065786973747360701b60448201526064015b60405180910390fd5b600080826040516102099190610ace565b90815260405190819003602001902080546001600160a01b031916331781559050600181016102388382610b73565b5060038101805460ff191660019081179091554260048301819055600583015533600090815260208281526040822080549384018155825290200161027d8382610b73565b507f44ca9609d2fe597457041d7e98533a969452ef425c10a46d0dd9f074497ea1ba82336040516102af929190610c33565b60405180910390a15050565b82336001600160a01b03166000826040516102d69190610ace565b908152604051908190036020019020546001600160a01b0316146103305760405162461bcd60e51b81526020600482015260116024820152702737ba103a3432902224a21037bbb732b960791b60448201526064016101ef565b6000846040516103409190610ace565b9081526040519081900360200190206003015460ff166103965760405162461bcd60e51b8152602060048201526011602482015270444944206973206e6f742061637469766560781b60448201526064016101ef565b816000856040516103a79190610ace565b9081526020016040518091039020600201846040516103c69190610ace565b908152602001604051809103902090816103e09190610b73565b50426000856040516103f29190610ace565b9081526020016040518091039020600501819055507fc7ab0161062eab85dc4ed0081a5ebe0bd9f4f0c414c4a432d45a68d1922f9b1884848460405161043a93929190610c5d565b60405180910390a150505050565b80336001600160a01b03166000826040516104639190610ace565b908152604051908190036020019020546001600160a01b0316146104bd5760405162461bcd60e51b81526020600482015260116024820152702737ba103a3432902224a21037bbb732b960791b60448201526064016101ef565b6000826040516104cd9190610ace565b9081526040519081900360200190206003015460ff1661052f5760405162461bcd60e51b815260206004820152601760248201527f44494420697320616c726561647920696e61637469766500000000000000000060448201526064016101ef565b600080836040516105409190610ace565b908152604051908190036020018120600301805492151560ff19909316929092179091554290600090610574908590610ace565b9081526020016040518091039020600501819055507f4360f12f602ccecefb32480e5314d0d3f57d38db8f52c76d8fdf4c39596c1c28826040516102af9190610abb565b6001600160a01b0381166000908152600160209081526040808320805482518185028101850190935280835260609492939192909184015b8282101561069c57838290600052602060002001805461060f90610aea565b80601f016020809104026020016040519081016040528092919081815260200182805461063b90610aea565b80156106885780601f1061065d57610100808354040283529160200191610688565b820191906000526020600020905b81548152906001019060200180831161066b57829003601f168201915b5050505050815260200190600101906105f0565b505050509050919050565b600080826040516106b89190610ace565b908152604051908190036020019020546001600160a01b031692915050565b60606000836040516106e99190610ace565b9081526040519081900360200190206003015460ff1661073f5760405162461bcd60e51b8152602060048201526011602482015270444944206973206e6f742061637469766560781b60448201526064016101ef565b60008360405161074f9190610ace565b90815260200160405180910390206002018260405161076e9190610ace565b9081526020016040518091039020805461078790610aea565b80601f01602080910402602001604051908101604052809291908181526020018280546107b390610aea565b80156108005780601f106107d557610100808354040283529160200191610800565b820191906000526020600020905b8154815290600101906020018083116107e357829003601f168201915b5050505050905092915050565b634e487b7160e01b600052604160045260246000fd5b600082601f83011261083457600080fd5b813567ffffffffffffffff8082111561084f5761084f61080d565b604051601f8301601f19908116603f011681019082821181831017156108775761087761080d565b8160405283815286602085880101111561089057600080fd5b836020870160208301376000602085830101528094505050505092915050565b6000602082840312156108c257600080fd5b813567ffffffffffffffff8111156108d957600080fd5b6108e584828501610823565b949350505050565b60008060006060848603121561090257600080fd5b833567ffffffffffffffff8082111561091a57600080fd5b61092687838801610823565b9450602086013591508082111561093c57600080fd5b61094887838801610823565b9350604086013591508082111561095e57600080fd5b5061096b86828701610823565b9150509250925092565b60006020828403121561098757600080fd5b81356001600160a01b038116811461099e57600080fd5b9392505050565b60005b838110156109c05781810151838201526020016109a8565b50506000910152565b600081518084526109e18160208601602086016109a5565b601f01601f19169290920160200192915050565b6000602080830181845280855180835260408601915060408160051b870101925083870160005b82811015610a4a57603f19888603018452610a388583516109c9565b94509285019290850190600101610a1c565b5092979650505050505050565b60008060408385031215610a6a57600080fd5b823567ffffffffffffffff80821115610a8257600080fd5b610a8e86838701610823565b93506020850135915080821115610aa457600080fd5b50610ab185828601610823565b9150509250929050565b60208152600061099e60208301846109c9565b60008251610ae08184602087016109a5565b9190910192915050565b600181811c90821680610afe57607f821691505b602082108103610b1e57634e487b7160e01b600052602260045260246000fd5b50919050565b601f821115610b6e57600081815260208120601f850160051c81016020861015610b4b5750805b601f850160051c820191505b81811015610b6a57828155600101610b57565b5050505b505050565b815167ffffffffffffffff811115610b8d57610b8d61080d565b610ba181610b9b8454610aea565b84610b24565b602080601f831160018114610bd65760008415610bbe5750858301515b600019600386901b1c1916600185901b178555610b6a565b600085815260208120601f198616915b82811015610c0557888601518255948401946001909101908401610be6565b5085821015610c235787850151600019600388901b60f8161c191681555b5050505050600190811b01905550565b604081526000610c4660408301856109c9565b905060018060a01b03831660208301529392505050565b606081526000610c7060608301866109c9565b8281036020840152610c8281866109c9565b90508281036040840152610c9681856109c9565b969550505050505056fea2646970667358221220d21d3d5366350a10ad5a95c575b40ab9455e967f9442443eb3cc0eb637baa05b64736f6c63430008130033",
  "linkReferences": {},
  "deployedLinkReferences": {}
}